{
  "_format": "hh-sol-artifact-1",
  "contractName": "SwanPayment",
  "sourceName": "contracts/SwanPayment.sol",
  "abi": [
    {
      "anonymous": false,
      "inputs": [
        {
          "indexed": false,
          "internalType": "string",
          "name": "id",
          "type": "string"
        },
        {
          "indexed": false,
          "internalType": "address",
          "name": "token",
          "type": "address"
        },
        {
          "indexed": false,
          "internalType": "uint256",
          "name": "lockedFee",
          "type": "uint256"
        },
        {
          "indexed": false,
          "internalType": "uint256",
          "name": "minPayment",
          "type": "uint256"
        },
        {
          "indexed": false,
          "internalType": "address",
          "name": "recipient",
          "type": "address"
        },
        {
          "indexed": false,
          "internalType": "uint256",
          "name": "deadline",
          "type": "uint256"
        }
      ],
      "name": "LockPayment",
      "type": "event"
    },
    {
      "inputs": [],
      "name": "NATIVE_TOKEN",
      "outputs": [
        {
          "internalType": "address",
          "name": "",
          "type": "address"
        }
      ],
      "stateMutability": "view",
      "type": "function"
    },
    {
      "inputs": [
        {
          "internalType": "string",
          "name": "txId",
          "type": "string"
        }
      ],
      "name": "getLockedPaymentInfo",
      "outputs": [
        {
          "components": [
            {
              "internalType": "string",
              "name": "id",
              "type": "string"
            },
            {
              "internalType": "address",
              "name": "token",
              "type": "address"
            },
            {
              "internalType": "uint256",
              "name": "minPayment",
              "type": "uint256"
            },
            {
              "internalType": "uint256",
              "name": "lockedFee",
              "type": "uint256"
            },
            {
              "internalType": "address",
              "name": "owner",
              "type": "address"
            },
            {
              "internalType": "address",
              "name": "recipient",
              "type": "address"
            },
            {
              "internalType": "uint256",
              "name": "deadline",
              "type": "uint256"
            },
            {
              "internalType": "bool",
              "name": "_isExisted",
              "type": "bool"
            }
          ],
          "internalType": "struct IPaymentMinimal.TxInfo",
          "name": "tx",
          "type": "tuple"
        }
      ],
      "stateMutability": "view",
      "type": "function"
    },
    {
      "inputs": [
        {
          "internalType": "address",
          "name": "owner",
          "type": "address"
        },
        {
          "internalType": "address",
          "name": "ERC20_TOKEN",
          "type": "address"
        },
        {
          "internalType": "address",
          "name": "oracle",
          "type": "address"
        },
        {
          "internalType": "address",
          "name": "priceFeed",
          "type": "address"
        }
      ],
      "name": "initialize",
      "outputs": [],
      "stateMutability": "nonpayable",
      "type": "function"
    },
    {
      "inputs": [
        {
          "components": [
            {
              "internalType": "string",
              "name": "id",
              "type": "string"
            },
            {
              "internalType": "uint256",
              "name": "minPayment",
              "type": "uint256"
            },
            {
              "internalType": "uint256",
              "name": "amount",
              "type": "uint256"
            },
            {
              "internalType": "uint256",
              "name": "lockTime",
              "type": "uint256"
            },
            {
              "internalType": "address",
              "name": "recipient",
              "type": "address"
            }
          ],
          "internalType": "struct IPaymentMinimal.lockPaymentParam",
          "name": "param",
          "type": "tuple"
        }
      ],
      "name": "lockPayment",
      "outputs": [
        {
          "internalType": "bool",
          "name": "",
          "type": "bool"
        }
      ],
      "stateMutability": "payable",
      "type": "function"
    },
    {
      "inputs": [
        {
          "components": [
            {
              "internalType": "string",
              "name": "id",
              "type": "string"
            },
            {
              "internalType": "uint256",
              "name": "minPayment",
              "type": "uint256"
            },
            {
              "internalType": "uint256",
              "name": "amount",
              "type": "uint256"
            },
            {
              "internalType": "uint256",
              "name": "lockTime",
              "type": "uint256"
            },
            {
              "internalType": "address",
              "name": "recipient",
              "type": "address"
            }
          ],
          "internalType": "struct IPaymentMinimal.lockPaymentParam",
          "name": "param",
          "type": "tuple"
        }
      ],
      "name": "lockTokenPayment",
      "outputs": [
        {
          "internalType": "bool",
          "name": "",
          "type": "bool"
        }
      ],
      "stateMutability": "nonpayable",
      "type": "function"
    },
    {
      "inputs": [
        {
          "internalType": "address",
          "name": "oracle",
          "type": "address"
        }
      ],
      "name": "setOracle",
      "outputs": [
        {
          "internalType": "bool",
          "name": "",
          "type": "bool"
        }
      ],
      "stateMutability": "nonpayable",
      "type": "function"
    },
    {
      "inputs": [
        {
          "internalType": "address",
          "name": "priceFeed",
          "type": "address"
        }
      ],
      "name": "setPriceFeed",
      "outputs": [
        {
          "internalType": "bool",
          "name": "",
          "type": "bool"
        }
      ],
      "stateMutability": "nonpayable",
      "type": "function"
    },
    {
      "inputs": [
        {
          "internalType": "string",
          "name": "txId",
          "type": "string"
        }
      ],
      "name": "unlockPayment",
      "outputs": [
        {
          "internalType": "bool",
          "name": "",
          "type": "bool"
        }
      ],
      "stateMutability": "nonpayable",
      "type": "function"
    },
    {
      "inputs": [
        {
          "components": [
            {
              "internalType": "string",
              "name": "id",
              "type": "string"
            },
            {
              "internalType": "string",
              "name": "orderId",
              "type": "string"
            },
            {
              "internalType": "string",
              "name": "dealId",
              "type": "string"
            },
            {
              "internalType": "uint256",
              "name": "amount",
              "type": "uint256"
            },
            {
              "internalType": "address",
              "name": "recipient",
              "type": "address"
            }
          ],
          "internalType": "struct IPaymentMinimal.unlockPaymentParam",
          "name": "param",
          "type": "tuple"
        }
      ],
      "name": "unlockTokenPayment",
      "outputs": [
        {
          "internalType": "bool",
          "name": "",
          "type": "bool"
        }
      ],
      "stateMutability": "nonpayable",
      "type": "function"
    }
  ],
  "bytecode": "0x608060405234801561001057600080fd5b506118df806100206000396000f3fe6080604052600436106100965760003560e01c8063c27fe28f11610069578063e063922b1161004e578063e063922b14610194578063f8c8765e146101c1578063fbcfd35c146101e357600080fd5b8063c27fe28f1461015d578063e01d76461461017157600080fd5b806331f7d9641461009b5780635c95e7e1146100ed578063724e78da1461011d5780637adbf9731461013d575b600080fd5b3480156100a757600080fd5b506100c373eeeeeeeeeeeeeeeeeeeeeeeeeeeeeeeeeeeeeeee81565b60405173ffffffffffffffffffffffffffffffffffffffff90911681526020015b60405180910390f35b3480156100f957600080fd5b5061010d6101083660046114de565b610203565b60405190151581526020016100e4565b34801561012957600080fd5b5061010d6101383660046113dd565b610915565b34801561014957600080fd5b5061010d6101583660046113dd565b6109e2565b61010d61016b3660046114de565b50600190565b34801561017d57600080fd5b5061010d61018c366004611471565b600192915050565b3480156101a057600080fd5b506101b46101af366004611471565b610ab0565b6040516100e491906116e0565b3480156101cd57600080fd5b506101e16101dc3660046113fe565b610c1b565b005b3480156101ef57600080fd5b5061010d6101fe3660046114de565b610dd0565b60008060056102128480611793565b6040516102209291906115e2565b908152604051908190036020019020600781015490915060ff166102a5576040517f08c379a000000000000000000000000000000000000000000000000000000000815260206004820152601a60248201527f5472616e73616374696f6e20646f6573206e6f7420657869737400000000000060448201526064015b60405180910390fd5b806006015442111561045557600481015473ffffffffffffffffffffffffffffffffffffffff16331461035a576040517f08c379a000000000000000000000000000000000000000000000000000000000815260206004820152603460248201527f54782070617373656420646561646c696e652c206f6e6c79206f776e6572206360448201527f616e20676574206c6f636b656420746f6b656e73000000000000000000000000606482015260840161029c565b6007810180547fffffffffffffffffffffffffffffffffffffffffffffffffffffffffffffff001690556000600282018190556003820181905580546004808401546040517fa9059cbb00000000000000000000000000000000000000000000000000000000815273ffffffffffffffffffffffffffffffffffffffff918216928101929092526024820193909352620100009091049091169063a9059cbb90604401602060405180830381600087803b15801561041757600080fd5b505af115801561042b573d6000803e3d6000fd5b505050506040513d601f19601f8201168201806040525081019061044f9190611451565b5061090c565b60008360600135116104c3576040517f08c379a000000000000000000000000000000000000000000000000000000000815260206004820152601a60248201527f5472616e73616374696f6e20697320696e636f6d706c65746564000000000000604482015260640161029c565b60025473ffffffffffffffffffffffffffffffffffffffff16635a2b0ea66104eb8580611793565b6104f86020880188611793565b61050560408a018a611793565b60608b013561051a60a08d0160808e016113dd565b60016040518a63ffffffff1660e01b815260040161054099989796959493929190611648565b60206040518083038186803b15801561055857600080fd5b505afa15801561056c573d6000803e3d6000fd5b505050506040513d601f19601f820116820180604052508101906105909190611451565b6105f6576040517f08c379a000000000000000000000000000000000000000000000000000000000815260206004820152601560248201527f696c6c6567616c20756e6c6f636b20616374696f6e0000000000000000000000604482015260640161029c565b600354600080546040517f3ddac95300000000000000000000000000000000000000000000000000000000815273ffffffffffffffffffffffffffffffffffffffff62010000909204821660048201526060870135602482015291921690633ddac9539060440160206040518083038186803b15801561067557600080fd5b505afa158015610689573d6000803e3d6000fd5b505050506040513d601f19601f820116820180604052508101906106ad9190611519565b905081600201548110156106c2575060028101545b6007820180547fffffffffffffffffffffffffffffffffffffffffffffffffffffffffffffff0016905560408051808201909152601281527f61637475616c20746f6b656e2069732025730000000000000000000000000000602082015261072a90826112ec565b8082600301541115610823576003820180546000918290559054600484015473ffffffffffffffffffffffffffffffffffffffff6201000090920482169163a9059cbb91166107798585611815565b6040517fffffffff0000000000000000000000000000000000000000000000000000000060e085901b16815273ffffffffffffffffffffffffffffffffffffffff90921660048301526024820152604401602060405180830381600087803b1580156107e457600080fd5b505af11580156107f8573d6000803e3d6000fd5b505050506040513d601f19601f8201168201806040525081019061081c9190611451565b5050610830565b5060038101805460009091555b60005462010000900473ffffffffffffffffffffffffffffffffffffffff1663a9059cbb61086460a08701608088016113dd565b6040517fffffffff0000000000000000000000000000000000000000000000000000000060e084901b16815273ffffffffffffffffffffffffffffffffffffffff909116600482015260248101849052604401602060405180830381600087803b1580156108d157600080fd5b505af11580156108e5573d6000803e3d6000fd5b505050506040513d601f19601f820116820180604052508101906109099190611451565b50505b50600192915050565b60015460009073ffffffffffffffffffffffffffffffffffffffff163314610999576040517f08c379a000000000000000000000000000000000000000000000000000000000815260206004820152601760248201527f43616c6c6572206973206e6f7420746865206f776e6572000000000000000000604482015260640161029c565b50600380547fffffffffffffffffffffffff00000000000000000000000000000000000000001673ffffffffffffffffffffffffffffffffffffffff831617905560015b919050565b60015460009073ffffffffffffffffffffffffffffffffffffffff163314610a66576040517f08c379a000000000000000000000000000000000000000000000000000000000815260206004820152601760248201527f43616c6c6572206973206e6f7420746865206f776e6572000000000000000000604482015260640161029c565b506002805473ffffffffffffffffffffffffffffffffffffffff83167fffffffffffffffffffffffff00000000000000000000000000000000000000009091161790556001919050565b604080516101008101825260608082526000602083018190528284018190529082018190526080820181905260a0820181905260c0820181905260e08201529051600590610b0190859085906115e2565b908152602001604051809103902060405180610100016040529081600082018054610b2b9061182c565b80601f0160208091040260200160405190810160405280929190818152602001828054610b579061182c565b8015610ba45780601f10610b7957610100808354040283529160200191610ba4565b820191906000526020600020905b815481529060010190602001808311610b8757829003601f168201915b5050509183525050600182015473ffffffffffffffffffffffffffffffffffffffff9081166020830152600283015460408301526003830154606083015260048301548116608083015260058301541660a0820152600682015460c082015260079091015460ff16151560e0909101529392505050565b600054610100900460ff1680610c34575060005460ff16155b610cc0576040517f08c379a000000000000000000000000000000000000000000000000000000000815260206004820152602e60248201527f496e697469616c697a61626c653a20636f6e747261637420697320616c72656160448201527f647920696e697469616c697a6564000000000000000000000000000000000000606482015260840161029c565b600054610100900460ff16158015610cff57600080547fffffffffffffffffffffffffffffffffffffffffffffffffffffffffffff0000166101011790555b600180547fffffffffffffffffffffffff000000000000000000000000000000000000000090811673ffffffffffffffffffffffffffffffffffffffff88811691909117909255600080547fffffffffffffffffffff0000000000000000000000000000000000000000ffff16620100008885160217905560028054821686841617905560038054909116918416919091179055620697806004558015610dc957600080547fffffffffffffffffffffffffffffffffffffffffffffffffffffffffffff00ff1690555b5050505050565b60006005610dde8380611793565b604051610dec9291906115e2565b9081526040519081900360200190206007015460ff1615610e8f576040517f08c379a000000000000000000000000000000000000000000000000000000000815260206004820152602860248201527f5061796d656e74206f66207472616e73616374696f6e20697320616c7265616460448201527f79206c6f636b6564000000000000000000000000000000000000000000000000606482015260840161029c565b60008260200135118015610eaa575081602001358260400135115b610f36576040517f08c379a000000000000000000000000000000000000000000000000000000000815260206004820152602760248201527f7061796d656e742073686f756c642067726561746572207468616e206d696e2060448201527f7061796d656e7400000000000000000000000000000000000000000000000000606482015260840161029c565b600054604080517fdd62ed3e000000000000000000000000000000000000000000000000000000008152336004820152306024820152908401359162010000900473ffffffffffffffffffffffffffffffffffffffff169063dd62ed3e9060440160206040518083038186803b158015610faf57600080fd5b505afa158015610fc3573d6000803e3d6000fd5b505050506040513d601f19601f82011682018060405250810190610fe79190611519565b101561104f576040517f08c379a000000000000000000000000000000000000000000000000000000000815260206004820152601d60248201527f706c6561736520617070726f7665207370656e64696e6720746f6b656e000000604482015260640161029c565b600054604080517f23b872dd0000000000000000000000000000000000000000000000000000000081523360048201523060248201529084013560448201526201000090910473ffffffffffffffffffffffffffffffffffffffff16906323b872dd90606401602060405180830381600087803b1580156110cf57600080fd5b505af11580156110e3573d6000803e3d6000fd5b505050506040513d601f19601f820116820180604052508101906111079190611451565b50600060056111168480611793565b6040516111249291906115e2565b9081526040519081900360209081019091206004810180547fffffffffffffffffffffffff00000000000000000000000000000000000000001633179055908401356002820155905061117d60a08401608085016113dd565b6005820180547fffffffffffffffffffffffff00000000000000000000000000000000000000001673ffffffffffffffffffffffffffffffffffffffff929092169190911790556111d26060840135426117fd565b600682015560408301356003820155600054600180830180546201000090930473ffffffffffffffffffffffffffffffffffffffff167fffffffffffffffffffffffff0000000000000000000000000000000000000000909316929092179091556007820180547fffffffffffffffffffffffffffffffffffffffffffffffffffffffffffffff001690911790557f87b076911cb43e46012dbf762607ad5d0c5d6eb5e1d8fec72be99002451c18ba61128b8480611793565b6001840154600385015473ffffffffffffffffffffffffffffffffffffffff9091169060208801356112c360a08a0160808b016113dd565b87600601546040516112db97969594939291906115f2565b60405180910390a150600192915050565b61137d82826040516024016113029291906116be565b604080517fffffffffffffffffffffffffffffffffffffffffffffffffffffffffffffffe08184030181529190526020810180517bffffffffffffffffffffffffffffffffffffffffffffffffffffffff167f9710a9d000000000000000000000000000000000000000000000000000000000179052611381565b5050565b80516a636f6e736f6c652e6c6f67602083016000808483855afa5050505050565b803573ffffffffffffffffffffffffffffffffffffffff811681146109dd57600080fd5b600060a082840312156113d7578081fd5b50919050565b6000602082840312156113ee578081fd5b6113f7826113a2565b9392505050565b60008060008060808587031215611413578283fd5b61141c856113a2565b935061142a602086016113a2565b9250611438604086016113a2565b9150611446606086016113a2565b905092959194509250565b600060208284031215611462578081fd5b815180151581146113f7578182fd5b60008060208385031215611483578182fd5b823567ffffffffffffffff8082111561149a578384fd5b818501915085601f8301126114ad578384fd5b8135818111156114bb578485fd5b8660208285010111156114cc578485fd5b60209290920196919550909350505050565b6000602082840312156114ef578081fd5b813567ffffffffffffffff811115611505578182fd5b611511848285016113c6565b949350505050565b60006020828403121561152a578081fd5b5051919050565b81835281816020850137506000806020838501015260207fffffffffffffffffffffffffffffffffffffffffffffffffffffffffffffffe0601f840116840101905092915050565b60008151808452815b8181101561159e57602081850181015186830182015201611582565b818111156115af5782602083870101525b50601f017fffffffffffffffffffffffffffffffffffffffffffffffffffffffffffffffe0169290920160200192915050565b8183823760009101908152919050565b60c08152600061160660c08301898b611531565b73ffffffffffffffffffffffffffffffffffffffff978816602084015260408301969096525060608101939093529316608082015260a0019190915292915050565b60c08152600061165c60c083018b8d611531565b828103602084015261166f818a8c611531565b9050828103604084015261168481888a611531565b6060840196909652505073ffffffffffffffffffffffffffffffffffffffff929092166080830152151560a0909101529695505050505050565b6040815260006116d16040830185611579565b90508260208301529392505050565b60208152600082516101008060208501526116ff610120850183611579565b9150602085015173ffffffffffffffffffffffffffffffffffffffff808216604087015260408701516060870152606087015160808701528060808801511660a0870152505060a085015161176c60c086018273ffffffffffffffffffffffffffffffffffffffff169052565b5060c085015160e085015260e08501516117898286018215159052565b5090949350505050565b60008083357fffffffffffffffffffffffffffffffffffffffffffffffffffffffffffffffe18436030181126117c7578283fd5b83018035915067ffffffffffffffff8211156117e1578283fd5b6020019150368190038213156117f657600080fd5b9250929050565b600082198211156118105761181061187a565b500190565b6000828210156118275761182761187a565b500390565b600181811c9082168061184057607f821691505b602082108114156113d7577f4e487b7100000000000000000000000000000000000000000000000000000000600052602260045260246000fd5b7f4e487b7100000000000000000000000000000000000000000000000000000000600052601160045260246000fdfea26469706673582212207c34ae17eb0c474bd56a6b1024811d15bcdd9bdd276420fd800ea3c7e315df5f64736f6c63430008040033",
  "linkReferences": {},
  "deployedLinkReferences": {}
}