{
  "_format": "hh-sol-artifact-1",
  "contractName": "SwanPayment",
  "sourceName": "contracts/SwanPayment.sol",
  "abi": [
    {
      "anonymous": false,
      "inputs": [
        {
          "indexed": false,
          "internalType": "string",
          "name": "id",
          "type": "string"
        },
        {
          "indexed": false,
          "internalType": "address",
          "name": "token",
          "type": "address"
        },
        {
          "indexed": false,
          "internalType": "uint256",
          "name": "amount",
          "type": "uint256"
        },
        {
          "indexed": false,
          "internalType": "address",
          "name": "owner",
          "type": "address"
        }
      ],
      "name": "ExpirePayment",
      "type": "event"
    },
    {
      "anonymous": false,
      "inputs": [
        {
          "indexed": false,
          "internalType": "string",
          "name": "id",
          "type": "string"
        },
        {
          "indexed": false,
          "internalType": "address",
          "name": "token",
          "type": "address"
        },
        {
          "indexed": false,
          "internalType": "uint256",
          "name": "lockedFee",
          "type": "uint256"
        },
        {
          "indexed": false,
          "internalType": "uint256",
          "name": "minPayment",
          "type": "uint256"
        },
        {
          "indexed": false,
          "internalType": "address",
          "name": "recipient",
          "type": "address"
        },
        {
          "indexed": false,
          "internalType": "uint256",
          "name": "deadline",
          "type": "uint256"
        }
      ],
      "name": "LockPayment",
      "type": "event"
    },
    {
      "anonymous": false,
      "inputs": [
        {
          "indexed": false,
          "internalType": "string",
          "name": "id",
          "type": "string"
        },
        {
          "indexed": false,
          "internalType": "address",
          "name": "token",
          "type": "address"
        },
        {
          "indexed": false,
          "internalType": "uint256",
          "name": "cost",
          "type": "uint256"
        },
        {
          "indexed": false,
          "internalType": "uint256",
          "name": "restToken",
          "type": "uint256"
        },
        {
          "indexed": false,
          "internalType": "address",
          "name": "recipient",
          "type": "address"
        },
        {
          "indexed": false,
          "internalType": "address",
          "name": "owner",
          "type": "address"
        }
      ],
      "name": "UnlockPayment",
      "type": "event"
    },
    {
      "inputs": [],
      "name": "NATIVE_TOKEN",
      "outputs": [
        {
          "internalType": "address",
          "name": "",
          "type": "address"
        }
      ],
      "stateMutability": "view",
      "type": "function"
    },
    {
      "inputs": [
        {
          "internalType": "string",
          "name": "txId",
          "type": "string"
        }
      ],
      "name": "getLockedPaymentInfo",
      "outputs": [
        {
          "components": [
            {
              "internalType": "string",
              "name": "id",
              "type": "string"
            },
            {
              "internalType": "address",
              "name": "token",
              "type": "address"
            },
            {
              "internalType": "uint256",
              "name": "minPayment",
              "type": "uint256"
            },
            {
              "internalType": "uint256",
              "name": "lockedFee",
              "type": "uint256"
            },
            {
              "internalType": "address",
              "name": "owner",
              "type": "address"
            },
            {
              "internalType": "address",
              "name": "recipient",
              "type": "address"
            },
            {
              "internalType": "uint256",
              "name": "deadline",
              "type": "uint256"
            },
            {
              "internalType": "bool",
              "name": "_isExisted",
              "type": "bool"
            }
          ],
          "internalType": "struct IPaymentMinimal.TxInfo",
          "name": "tx",
          "type": "tuple"
        }
      ],
      "stateMutability": "view",
      "type": "function"
    },
    {
      "inputs": [
        {
          "internalType": "address",
          "name": "owner",
          "type": "address"
        },
        {
          "internalType": "address",
          "name": "ERC20_TOKEN",
          "type": "address"
        },
        {
          "internalType": "address",
          "name": "oracle",
          "type": "address"
        },
        {
          "internalType": "address",
          "name": "priceFeed",
          "type": "address"
        }
      ],
      "name": "initialize",
      "outputs": [],
      "stateMutability": "nonpayable",
      "type": "function"
    },
    {
      "inputs": [
        {
          "components": [
            {
              "internalType": "string",
              "name": "id",
              "type": "string"
            },
            {
              "internalType": "uint256",
              "name": "minPayment",
              "type": "uint256"
            },
            {
              "internalType": "uint256",
              "name": "amount",
              "type": "uint256"
            },
            {
              "internalType": "uint256",
              "name": "lockTime",
              "type": "uint256"
            },
            {
              "internalType": "address",
              "name": "recipient",
              "type": "address"
            }
          ],
          "internalType": "struct IPaymentMinimal.lockPaymentParam",
          "name": "param",
          "type": "tuple"
        }
      ],
      "name": "lockPayment",
      "outputs": [
        {
          "internalType": "bool",
          "name": "",
          "type": "bool"
        }
      ],
      "stateMutability": "payable",
      "type": "function"
    },
    {
      "inputs": [
        {
          "components": [
            {
              "internalType": "string",
              "name": "id",
              "type": "string"
            },
            {
              "internalType": "uint256",
              "name": "minPayment",
              "type": "uint256"
            },
            {
              "internalType": "uint256",
              "name": "amount",
              "type": "uint256"
            },
            {
              "internalType": "uint256",
              "name": "lockTime",
              "type": "uint256"
            },
            {
              "internalType": "address",
              "name": "recipient",
              "type": "address"
            }
          ],
          "internalType": "struct IPaymentMinimal.lockPaymentParam",
          "name": "param",
          "type": "tuple"
        }
      ],
      "name": "lockTokenPayment",
      "outputs": [
        {
          "internalType": "bool",
          "name": "",
          "type": "bool"
        }
      ],
      "stateMutability": "nonpayable",
      "type": "function"
    },
    {
      "inputs": [
        {
          "internalType": "address",
          "name": "oracle",
          "type": "address"
        }
      ],
      "name": "setOracle",
      "outputs": [
        {
          "internalType": "bool",
          "name": "",
          "type": "bool"
        }
      ],
      "stateMutability": "nonpayable",
      "type": "function"
    },
    {
      "inputs": [
        {
          "internalType": "address",
          "name": "priceFeed",
          "type": "address"
        }
      ],
      "name": "setPriceFeed",
      "outputs": [
        {
          "internalType": "bool",
          "name": "",
          "type": "bool"
        }
      ],
      "stateMutability": "nonpayable",
      "type": "function"
    },
    {
      "inputs": [
        {
          "internalType": "string",
          "name": "txId",
          "type": "string"
        }
      ],
      "name": "unlockPayment",
      "outputs": [
        {
          "internalType": "bool",
          "name": "",
          "type": "bool"
        }
      ],
      "stateMutability": "nonpayable",
      "type": "function"
    },
    {
      "inputs": [
        {
          "components": [
            {
              "internalType": "string",
              "name": "id",
              "type": "string"
            },
            {
              "internalType": "string",
              "name": "orderId",
              "type": "string"
            },
            {
              "internalType": "string",
              "name": "dealId",
              "type": "string"
            },
            {
              "internalType": "uint256",
              "name": "amount",
              "type": "uint256"
            },
            {
              "internalType": "address",
              "name": "recipient",
              "type": "address"
            }
          ],
          "internalType": "struct IPaymentMinimal.unlockPaymentParam",
          "name": "param",
          "type": "tuple"
        }
      ],
      "name": "unlockTokenPayment",
      "outputs": [
        {
          "internalType": "bool",
          "name": "",
          "type": "bool"
        }
      ],
      "stateMutability": "nonpayable",
      "type": "function"
    }
  ],
  "bytecode": "0x608060405234801561001057600080fd5b5061197e806100206000396000f3fe6080604052600436106100965760003560e01c8063c27fe28f11610069578063e063922b1161004e578063e063922b14610194578063f8c8765e146101c1578063fbcfd35c146101e357600080fd5b8063c27fe28f1461015d578063e01d76461461017157600080fd5b806331f7d9641461009b5780635c95e7e1146100ed578063724e78da1461011d5780637adbf9731461013d575b600080fd5b3480156100a757600080fd5b506100c373eeeeeeeeeeeeeeeeeeeeeeeeeeeeeeeeeeeeeeee81565b60405173ffffffffffffffffffffffffffffffffffffffff90911681526020015b60405180910390f35b3480156100f957600080fd5b5061010d6101083660046114f3565b610203565b60405190151581526020016100e4565b34801561012957600080fd5b5061010d6101383660046113f2565b6109e0565b34801561014957600080fd5b5061010d6101583660046113f2565b610aad565b61010d61016b3660046114f3565b50600190565b34801561017d57600080fd5b5061010d61018c366004611486565b600192915050565b3480156101a057600080fd5b506101b46101af366004611486565b610b7b565b6040516100e49190611711565b3480156101cd57600080fd5b506101e16101dc366004611413565b610ce6565b005b3480156101ef57600080fd5b5061010d6101fe3660046114f3565b610e9b565b60008060056102128480611832565b60405161022092919061158e565b908152604051908190036020019020600781015490915060ff166102a5576040517f08c379a000000000000000000000000000000000000000000000000000000000815260206004820152601a60248201527f5472616e73616374696f6e20646f6573206e6f7420657869737400000000000060448201526064015b60405180910390fd5b80600601544211156104c557600481015473ffffffffffffffffffffffffffffffffffffffff16331461035a576040517f08c379a000000000000000000000000000000000000000000000000000000000815260206004820152603460248201527f54782070617373656420646561646c696e652c206f6e6c79206f776e6572206360448201527f616e20676574206c6f636b656420746f6b656e73000000000000000000000000606482015260840161029c565b6007810180547fffffffffffffffffffffffffffffffffffffffffffffffffffffffffffffff001690556000600282018190556003820181905580546004808401546040517fa9059cbb00000000000000000000000000000000000000000000000000000000815273ffffffffffffffffffffffffffffffffffffffff918216928101929092526024820193909352620100009091049091169063a9059cbb90604401602060405180830381600087803b15801561041757600080fd5b505af115801561042b573d6000803e3d6000fd5b505050506040513d601f19601f8201168201806040525081019061044f9190611466565b507fe704d5e6168e602e91f017f25d889b182d9e11a90fd939a489cc2f04734c1f8a61047b8480611832565b600054600385015460048601546040516104b895949373ffffffffffffffffffffffffffffffffffffffff6201000090910481169392169061159e565b60405180910390a16109d7565b6000836060013511610533576040517f08c379a000000000000000000000000000000000000000000000000000000000815260206004820152601a60248201527f5472616e73616374696f6e20697320696e636f6d706c65746564000000000000604482015260640161029c565b60025473ffffffffffffffffffffffffffffffffffffffff16635a2b0ea661055b8580611832565b6105686020880188611832565b61057560408a018a611832565b60608b013561058a60a08d0160808e016113f2565b60016040518a63ffffffff1660e01b81526004016105b09998979695949392919061169b565b60206040518083038186803b1580156105c857600080fd5b505afa1580156105dc573d6000803e3d6000fd5b505050506040513d601f19601f820116820180604052508101906106009190611466565b610666576040517f08c379a000000000000000000000000000000000000000000000000000000000815260206004820152601560248201527f696c6c6567616c20756e6c6f636b20616374696f6e0000000000000000000000604482015260640161029c565b600354600080546040517f3ddac95300000000000000000000000000000000000000000000000000000000815273ffffffffffffffffffffffffffffffffffffffff62010000909204821660048201526060870135602482015291921690633ddac9539060440160206040518083038186803b1580156106e557600080fd5b505afa1580156106f9573d6000803e3d6000fd5b505050506040513d601f19601f8201168201806040525081019061071d919061152e565b90508160020154811015610732575060028101545b6007820180547fffffffffffffffffffffffffffffffffffffffffffffffffffffffffffffff001690556003820154818111156108515760006003840181905554600484015473ffffffffffffffffffffffffffffffffffffffff6201000090920482169163a9059cbb91166107a885856118b4565b6040517fffffffff0000000000000000000000000000000000000000000000000000000060e085901b16815273ffffffffffffffffffffffffffffffffffffffff90921660048301526024820152604401602060405180830381600087803b15801561081357600080fd5b505af1158015610827573d6000803e3d6000fd5b505050506040513d601f19601f8201168201806040525081019061084b9190611466565b5061085f565b600383018054600090915591505b60005462010000900473ffffffffffffffffffffffffffffffffffffffff1663a9059cbb61089360a08801608089016113f2565b6040517fffffffff0000000000000000000000000000000000000000000000000000000060e084901b16815273ffffffffffffffffffffffffffffffffffffffff909116600482015260248101859052604401602060405180830381600087803b15801561090057600080fd5b505af1158015610914573d6000803e3d6000fd5b505050506040513d601f19601f820116820180604052508101906109389190611466565b507fd9aab088cd193ab56c9a682b9f2e42fb39206b42c3a6ba78130dc97a2a8d03ee6109648680611832565b60005462010000900473ffffffffffffffffffffffffffffffffffffffff168561098e81876118b4565b61099e60a08c0160808d016113f2565b60048a01546040516109cc9796959493929173ffffffffffffffffffffffffffffffffffffffff16906115e9565b60405180910390a150505b50600192915050565b60015460009073ffffffffffffffffffffffffffffffffffffffff163314610a64576040517f08c379a000000000000000000000000000000000000000000000000000000000815260206004820152601760248201527f43616c6c6572206973206e6f7420746865206f776e6572000000000000000000604482015260640161029c565b50600380547fffffffffffffffffffffffff00000000000000000000000000000000000000001673ffffffffffffffffffffffffffffffffffffffff831617905560015b919050565b60015460009073ffffffffffffffffffffffffffffffffffffffff163314610b31576040517f08c379a000000000000000000000000000000000000000000000000000000000815260206004820152601760248201527f43616c6c6572206973206e6f7420746865206f776e6572000000000000000000604482015260640161029c565b506002805473ffffffffffffffffffffffffffffffffffffffff83167fffffffffffffffffffffffff00000000000000000000000000000000000000009091161790556001919050565b604080516101008101825260608082526000602083018190528284018190529082018190526080820181905260a0820181905260c0820181905260e08201529051600590610bcc908590859061158e565b908152602001604051809103902060405180610100016040529081600082018054610bf6906118cb565b80601f0160208091040260200160405190810160405280929190818152602001828054610c22906118cb565b8015610c6f5780601f10610c4457610100808354040283529160200191610c6f565b820191906000526020600020905b815481529060010190602001808311610c5257829003601f168201915b5050509183525050600182015473ffffffffffffffffffffffffffffffffffffffff9081166020830152600283015460408301526003830154606083015260048301548116608083015260058301541660a0820152600682015460c082015260079091015460ff16151560e0909101529392505050565b600054610100900460ff1680610cff575060005460ff16155b610d8b576040517f08c379a000000000000000000000000000000000000000000000000000000000815260206004820152602e60248201527f496e697469616c697a61626c653a20636f6e747261637420697320616c72656160448201527f647920696e697469616c697a6564000000000000000000000000000000000000606482015260840161029c565b600054610100900460ff16158015610dca57600080547fffffffffffffffffffffffffffffffffffffffffffffffffffffffffffff0000166101011790555b600180547fffffffffffffffffffffffff000000000000000000000000000000000000000090811673ffffffffffffffffffffffffffffffffffffffff88811691909117909255600080547fffffffffffffffffffff0000000000000000000000000000000000000000ffff16620100008885160217905560028054821686841617905560038054909116918416919091179055620697806004558015610e9457600080547fffffffffffffffffffffffffffffffffffffffffffffffffffffffffffff00ff1690555b5050505050565b60006005610ea98380611832565b604051610eb792919061158e565b9081526040519081900360200190206007015460ff1615610f5a576040517f08c379a000000000000000000000000000000000000000000000000000000000815260206004820152602860248201527f5061796d656e74206f66207472616e73616374696f6e20697320616c7265616460448201527f79206c6f636b6564000000000000000000000000000000000000000000000000606482015260840161029c565b60008260200135118015610f75575081602001358260400135115b611001576040517f08c379a000000000000000000000000000000000000000000000000000000000815260206004820152602760248201527f7061796d656e742073686f756c642067726561746572207468616e206d696e2060448201527f7061796d656e7400000000000000000000000000000000000000000000000000606482015260840161029c565b600054604080517fdd62ed3e000000000000000000000000000000000000000000000000000000008152336004820152306024820152908401359162010000900473ffffffffffffffffffffffffffffffffffffffff169063dd62ed3e9060440160206040518083038186803b15801561107a57600080fd5b505afa15801561108e573d6000803e3d6000fd5b505050506040513d601f19601f820116820180604052508101906110b2919061152e565b101561111a576040517f08c379a000000000000000000000000000000000000000000000000000000000815260206004820152601d60248201527f706c6561736520617070726f7665207370656e64696e6720746f6b656e000000604482015260640161029c565b600054604080517f23b872dd0000000000000000000000000000000000000000000000000000000081523360048201523060248201529084013560448201526201000090910473ffffffffffffffffffffffffffffffffffffffff16906323b872dd90606401602060405180830381600087803b15801561119a57600080fd5b505af11580156111ae573d6000803e3d6000fd5b505050506040513d601f19601f820116820180604052508101906111d29190611466565b50600060056111e18480611832565b6040516111ef92919061158e565b9081526040519081900360209081019091206004810180547fffffffffffffffffffffffff00000000000000000000000000000000000000001633179055908401356002820155905061124860a08401608085016113f2565b6005820180547fffffffffffffffffffffffff00000000000000000000000000000000000000001673ffffffffffffffffffffffffffffffffffffffff9290921691909117905561129d60608401354261189c565b600682015560408301356003820155600054600180830180546201000090930473ffffffffffffffffffffffffffffffffffffffff167fffffffffffffffffffffffff0000000000000000000000000000000000000000909316929092179091556007820180547fffffffffffffffffffffffffffffffffffffffffffffffffffffffffffffff001690911790557f87b076911cb43e46012dbf762607ad5d0c5d6eb5e1d8fec72be99002451c18ba6113568480611832565b6001840154600385015473ffffffffffffffffffffffffffffffffffffffff90911690602088013561138e60a08a0160808b016113f2565b87600601546040516113a69796959493929190611645565b60405180910390a150600192915050565b803573ffffffffffffffffffffffffffffffffffffffff81168114610aa857600080fd5b600060a082840312156113ec578081fd5b50919050565b600060208284031215611403578081fd5b61140c826113b7565b9392505050565b60008060008060808587031215611428578283fd5b611431856113b7565b935061143f602086016113b7565b925061144d604086016113b7565b915061145b606086016113b7565b905092959194509250565b600060208284031215611477578081fd5b8151801515811461140c578182fd5b60008060208385031215611498578182fd5b823567ffffffffffffffff808211156114af578384fd5b818501915085601f8301126114c2578384fd5b8135818111156114d0578485fd5b8660208285010111156114e1578485fd5b60209290920196919550909350505050565b600060208284031215611504578081fd5b813567ffffffffffffffff81111561151a578182fd5b611526848285016113db565b949350505050565b60006020828403121561153f578081fd5b5051919050565b81835281816020850137506000806020838501015260207fffffffffffffffffffffffffffffffffffffffffffffffffffffffffffffffe0601f840116840101905092915050565b8183823760009101908152919050565b6080815260006115b2608083018789611546565b73ffffffffffffffffffffffffffffffffffffffff9586166020840152604083019490945250921660609092019190915292915050565b60c0815260006115fd60c08301898b611546565b905073ffffffffffffffffffffffffffffffffffffffff8088166020840152866040840152856060840152808516608084015280841660a08401525098975050505050505050565b60c08152600061165960c08301898b611546565b73ffffffffffffffffffffffffffffffffffffffff978816602084015260408301969096525060608101939093529316608082015260a0019190915292915050565b60c0815260006116af60c083018b8d611546565b82810360208401526116c2818a8c611546565b905082810360408401526116d781888a611546565b6060840196909652505073ffffffffffffffffffffffffffffffffffffffff929092166080830152151560a0909101529695505050505050565b6000602080835283516101008083860152815180610120870152845b8181101561174a578381018501518782016101400152840161172d565b8181111561175c578561014083890101525b509286015173ffffffffffffffffffffffffffffffffffffffff81166040870152926040870151606087015260608701516080870152608087015193506117bb60a087018573ffffffffffffffffffffffffffffffffffffffff169052565b60a087015173ffffffffffffffffffffffffffffffffffffffff811660c0880152935060c087015160e087015260e087015193506117fc8287018515159052565b601f017fffffffffffffffffffffffffffffffffffffffffffffffffffffffffffffffe016949094016101400195945050505050565b60008083357fffffffffffffffffffffffffffffffffffffffffffffffffffffffffffffffe1843603018112611866578283fd5b83018035915067ffffffffffffffff821115611880578283fd5b60200191503681900382131561189557600080fd5b9250929050565b600082198211156118af576118af611919565b500190565b6000828210156118c6576118c6611919565b500390565b600181811c908216806118df57607f821691505b602082108114156113ec577f4e487b7100000000000000000000000000000000000000000000000000000000600052602260045260246000fd5b7f4e487b7100000000000000000000000000000000000000000000000000000000600052601160045260246000fdfea26469706673582212204442462c4cdbd5dd7e7e8c6e65900bd9b297b57808cf28950e678f3cc895f0eb64736f6c63430008040033",
  "linkReferences": {},
  "deployedLinkReferences": {}
}