{
  "_format": "hh-sol-artifact-1",
  "contractName": "FilecoinOracle",
  "sourceName": "contracts/FilecoinOracle.sol",
  "abi": [
    {
      "inputs": [
        {
          "internalType": "address",
          "name": "owner",
          "type": "address"
        }
      ],
      "stateMutability": "nonpayable",
      "type": "constructor"
    },
    {
      "inputs": [
        {
          "internalType": "string",
          "name": "txId",
          "type": "string"
        }
      ],
      "name": "getPaymentInfo",
      "outputs": [
        {
          "internalType": "uint256",
          "name": "actualPaid",
          "type": "uint256"
        }
      ],
      "stateMutability": "view",
      "type": "function"
    },
    {
      "inputs": [
        {
          "internalType": "address",
          "name": "owner",
          "type": "address"
        },
        {
          "internalType": "uint8",
          "name": "threshold",
          "type": "uint8"
        }
      ],
      "name": "initialize",
      "outputs": [],
      "stateMutability": "nonpayable",
      "type": "function"
    },
    {
      "inputs": [
        {
          "internalType": "address[]",
          "name": "daoUsers",
          "type": "address[]"
        }
      ],
      "name": "setDAOUsers",
      "outputs": [
        {
          "internalType": "bool",
          "name": "",
          "type": "bool"
        }
      ],
      "stateMutability": "nonpayable",
      "type": "function"
    },
    {
      "inputs": [
        {
          "internalType": "string",
          "name": "txId",
          "type": "string"
        },
        {
          "internalType": "uint256",
          "name": "actualPaid",
          "type": "uint256"
        }
      ],
      "name": "updatePaymentInfo",
      "outputs": [
        {
          "internalType": "bool",
          "name": "",
          "type": "bool"
        }
      ],
      "stateMutability": "nonpayable",
      "type": "function"
    }
  ],
  "bytecode": "0x608060405234801561001057600080fd5b5060405161093e38038061093e83398101604081905261002f9161005c565b600080546001600160a01b03909216620100000262010000600160b01b031990921691909117905561008a565b60006020828403121561006d578081fd5b81516001600160a01b0381168114610083578182fd5b9392505050565b6108a5806100996000396000f3fe608060405234801561001057600080fd5b506004361061004c5760003560e01c8063018fce0e146100515780636bcf35f914610077578063943b24b21461009a578063a7dddedb146100af575b600080fd5b61006461005f366004610790565b6100c2565b6040519081526020015b60405180910390f35b61008a610085366004610720565b610205565b604051901515815260200161006e565b6100ad6100a83660046106cb565b6102a8565b005b61008a6100bd3660046107d0565b610432565b600080600284846040516100d792919061081a565b9081526020016040518091039020905060005b60015460ff8216101561018a5781600060018360ff1681548110610137577f4e487b7100000000000000000000000000000000000000000000000000000000600052603260045260246000fd5b600091825260208083209091015473ffffffffffffffffffffffffffffffffffffffff168352820192909252604001902054610178576000925050506101ff565b806101828161082a565b9150506100ea565b5080600060016000815481106101c9577f4e487b7100000000000000000000000000000000000000000000000000000000600052603260045260246000fd5b600091825260208083209091015473ffffffffffffffffffffffffffffffffffffffff1683528201929092526040019020549150505b92915050565b6000805462010000900473ffffffffffffffffffffffffffffffffffffffff163314610292576040517f08c379a000000000000000000000000000000000000000000000000000000000815260206004820152601760248201527f43616c6c6572206973206e6f7420746865206f776e657200000000000000000060448201526064015b60405180910390fd5b61029e600184846105e7565b5060019392505050565b600054610100900460ff16806102c1575060005460ff16155b61034d576040517f08c379a000000000000000000000000000000000000000000000000000000000815260206004820152602e60248201527f496e697469616c697a61626c653a20636f6e747261637420697320616c72656160448201527f647920696e697469616c697a65640000000000000000000000000000000000006064820152608401610289565b600054610100900460ff1615801561038c57600080547fffffffffffffffffffffffffffffffffffffffffffffffffffffffffffff0000166101011790555b600080547fffffffffffffffffffff0000000000000000000000000000000000000000ffff166201000073ffffffffffffffffffffffffffffffffffffffff861602179055600380547fffffffffffffffffffffffffffffffffffffffffffffffffffffffffffffff001660ff8416179055801561042d57600080547fffffffffffffffffffffffffffffffffffffffffffffffffffffffffffff00ff1690555b505050565b600080805b60015460ff821610156104db573373ffffffffffffffffffffffffffffffffffffffff1660018260ff1681548110610498577f4e487b7100000000000000000000000000000000000000000000000000000000600052603260045260246000fd5b60009182526020909120015473ffffffffffffffffffffffffffffffffffffffff1614156104c957600191506104db565b806104d38161082a565b915050610437565b5080610543576040517f08c379a000000000000000000000000000000000000000000000000000000000815260206004820152601a60248201527f43616c6c6572206973206e6f74207468652044414f20757365720000000000006044820152606401610289565b6002858560405161055592919061081a565b908152604080516020928190038301902033600090815292529020600101546105dc57426002868660405161058b92919061081a565b9081526040805191829003602090810183203360009081529152206001019190915583906002906105bf908890889061081a565b908152604080516020928190038301902033600090815292529020555b506001949350505050565b82805482825590600052602060002090810192821561065f579160200282015b8281111561065f5781547fffffffffffffffffffffffff00000000000000000000000000000000000000001673ffffffffffffffffffffffffffffffffffffffff843516178255602090920191600190910190610607565b5061066b92915061066f565b5090565b5b8082111561066b5760008155600101610670565b60008083601f840112610695578182fd5b50813567ffffffffffffffff8111156106ac578182fd5b6020830191508360208285010111156106c457600080fd5b9250929050565b600080604083850312156106dd578182fd5b823573ffffffffffffffffffffffffffffffffffffffff81168114610700578283fd5b9150602083013560ff81168114610715578182fd5b809150509250929050565b60008060208385031215610732578182fd5b823567ffffffffffffffff80821115610749578384fd5b818501915085601f83011261075c578384fd5b81358181111561076a578485fd5b8660208260051b850101111561077e578485fd5b60209290920196919550909350505050565b600080602083850312156107a2578182fd5b823567ffffffffffffffff8111156107b8578283fd5b6107c485828601610684565b90969095509350505050565b6000806000604084860312156107e4578081fd5b833567ffffffffffffffff8111156107fa578182fd5b61080686828701610684565b909790965060209590950135949350505050565b8183823760009101908152919050565b600060ff821660ff811415610866577f4e487b710000000000000000000000000000000000000000000000000000000082526011600452602482fd5b6001019291505056fea26469706673582212207be7886a4d4449d39c963cc4185eba50e55b08a3e04a6a19f2d032db05205c3b64736f6c63430008040033",
  "linkReferences": {},
  "deployedLinkReferences": {}
}