{
  "_format": "hh-sol-artifact-1",
  "contractName": "FilswanOracle",
  "sourceName": "contracts/FilswanOracle.sol",
  "abi": [
    {
      "anonymous": false,
      "inputs": [
        {
          "indexed": true,
          "internalType": "address",
          "name": "previousOwner",
          "type": "address"
        },
        {
          "indexed": true,
          "internalType": "address",
          "name": "newOwner",
          "type": "address"
        }
      ],
      "name": "OwnershipTransferred",
      "type": "event"
    },
    {
      "anonymous": false,
      "inputs": [
        {
          "indexed": true,
          "internalType": "bytes32",
          "name": "role",
          "type": "bytes32"
        },
        {
          "indexed": true,
          "internalType": "bytes32",
          "name": "previousAdminRole",
          "type": "bytes32"
        },
        {
          "indexed": true,
          "internalType": "bytes32",
          "name": "newAdminRole",
          "type": "bytes32"
        }
      ],
      "name": "RoleAdminChanged",
      "type": "event"
    },
    {
      "anonymous": false,
      "inputs": [
        {
          "indexed": true,
          "internalType": "bytes32",
          "name": "role",
          "type": "bytes32"
        },
        {
          "indexed": true,
          "internalType": "address",
          "name": "account",
          "type": "address"
        },
        {
          "indexed": true,
          "internalType": "address",
          "name": "sender",
          "type": "address"
        }
      ],
      "name": "RoleGranted",
      "type": "event"
    },
    {
      "anonymous": false,
      "inputs": [
        {
          "indexed": true,
          "internalType": "bytes32",
          "name": "role",
          "type": "bytes32"
        },
        {
          "indexed": true,
          "internalType": "address",
          "name": "account",
          "type": "address"
        },
        {
          "indexed": true,
          "internalType": "address",
          "name": "sender",
          "type": "address"
        }
      ],
      "name": "RoleRevoked",
      "type": "event"
    },
    {
      "anonymous": false,
      "inputs": [
        {
          "indexed": false,
          "internalType": "string",
          "name": "cid",
          "type": "string"
        },
        {
          "indexed": false,
          "internalType": "string",
          "name": "orderId",
          "type": "string"
        },
        {
          "indexed": false,
          "internalType": "string",
          "name": "dealId",
          "type": "string"
        },
        {
          "indexed": false,
          "internalType": "address",
          "name": "recipient",
          "type": "address"
        },
        {
          "indexed": false,
          "internalType": "uint256",
          "name": "paid",
          "type": "uint256"
        },
        {
          "indexed": false,
          "internalType": "uint256",
          "name": "terms",
          "type": "uint256"
        },
        {
          "indexed": false,
          "internalType": "bool",
          "name": "status",
          "type": "bool"
        }
      ],
      "name": "SignTransaction",
      "type": "event"
    },
    {
      "inputs": [],
      "name": "DAO_ROLE",
      "outputs": [
        {
          "internalType": "bytes32",
          "name": "",
          "type": "bytes32"
        }
      ],
      "stateMutability": "view",
      "type": "function"
    },
    {
      "inputs": [],
      "name": "DEFAULT_ADMIN_ROLE",
      "outputs": [
        {
          "internalType": "bytes32",
          "name": "",
          "type": "bytes32"
        }
      ],
      "stateMutability": "view",
      "type": "function"
    },
    {
      "inputs": [
        {
          "internalType": "bytes32",
          "name": "role",
          "type": "bytes32"
        }
      ],
      "name": "getRoleAdmin",
      "outputs": [
        {
          "internalType": "bytes32",
          "name": "",
          "type": "bytes32"
        }
      ],
      "stateMutability": "view",
      "type": "function"
    },
    {
      "inputs": [
        {
          "internalType": "bytes32",
          "name": "role",
          "type": "bytes32"
        },
        {
          "internalType": "address",
          "name": "account",
          "type": "address"
        }
      ],
      "name": "grantRole",
      "outputs": [],
      "stateMutability": "nonpayable",
      "type": "function"
    },
    {
      "inputs": [
        {
          "internalType": "bytes32",
          "name": "role",
          "type": "bytes32"
        },
        {
          "internalType": "address",
          "name": "account",
          "type": "address"
        }
      ],
      "name": "hasRole",
      "outputs": [
        {
          "internalType": "bool",
          "name": "",
          "type": "bool"
        }
      ],
      "stateMutability": "view",
      "type": "function"
    },
    {
      "inputs": [
        {
          "internalType": "address",
          "name": "admin",
          "type": "address"
        },
        {
          "internalType": "uint8",
          "name": "threshold",
          "type": "uint8"
        }
      ],
      "name": "initialize",
      "outputs": [],
      "stateMutability": "nonpayable",
      "type": "function"
    },
    {
      "inputs": [
        {
          "internalType": "string",
          "name": "cid",
          "type": "string"
        },
        {
          "internalType": "string",
          "name": "orderId",
          "type": "string"
        },
        {
          "internalType": "string",
          "name": "dealId",
          "type": "string"
        },
        {
          "internalType": "uint256",
          "name": "paid",
          "type": "uint256"
        },
        {
          "internalType": "address",
          "name": "recipient",
          "type": "address"
        },
        {
          "internalType": "bool",
          "name": "status",
          "type": "bool"
        }
      ],
      "name": "isPaymentAvailable",
      "outputs": [
        {
          "internalType": "bool",
          "name": "",
          "type": "bool"
        }
      ],
      "stateMutability": "view",
      "type": "function"
    },
    {
      "inputs": [],
      "name": "owner",
      "outputs": [
        {
          "internalType": "address",
          "name": "",
          "type": "address"
        }
      ],
      "stateMutability": "view",
      "type": "function"
    },
    {
      "inputs": [],
      "name": "renounceOwnership",
      "outputs": [],
      "stateMutability": "nonpayable",
      "type": "function"
    },
    {
      "inputs": [
        {
          "internalType": "bytes32",
          "name": "role",
          "type": "bytes32"
        },
        {
          "internalType": "address",
          "name": "account",
          "type": "address"
        }
      ],
      "name": "renounceRole",
      "outputs": [],
      "stateMutability": "nonpayable",
      "type": "function"
    },
    {
      "inputs": [
        {
          "internalType": "bytes32",
          "name": "role",
          "type": "bytes32"
        },
        {
          "internalType": "address",
          "name": "account",
          "type": "address"
        }
      ],
      "name": "revokeRole",
      "outputs": [],
      "stateMutability": "nonpayable",
      "type": "function"
    },
    {
      "inputs": [
        {
          "internalType": "address[]",
          "name": "daoUsers",
          "type": "address[]"
        }
      ],
      "name": "setDAOUsers",
      "outputs": [
        {
          "internalType": "bool",
          "name": "",
          "type": "bool"
        }
      ],
      "stateMutability": "nonpayable",
      "type": "function"
    },
    {
      "inputs": [
        {
          "internalType": "string",
          "name": "cid",
          "type": "string"
        },
        {
          "internalType": "string",
          "name": "orderId",
          "type": "string"
        },
        {
          "internalType": "string",
          "name": "dealId",
          "type": "string"
        },
        {
          "internalType": "uint256",
          "name": "paid",
          "type": "uint256"
        },
        {
          "internalType": "address",
          "name": "recipient",
          "type": "address"
        },
        {
          "internalType": "uint256",
          "name": "terms",
          "type": "uint256"
        },
        {
          "internalType": "bool",
          "name": "status",
          "type": "bool"
        }
      ],
      "name": "signTransaction",
      "outputs": [],
      "stateMutability": "nonpayable",
      "type": "function"
    },
    {
      "inputs": [
        {
          "internalType": "bytes4",
          "name": "interfaceId",
          "type": "bytes4"
        }
      ],
      "name": "supportsInterface",
      "outputs": [
        {
          "internalType": "bool",
          "name": "",
          "type": "bool"
        }
      ],
      "stateMutability": "view",
      "type": "function"
    },
    {
      "inputs": [
        {
          "internalType": "address",
          "name": "newOwner",
          "type": "address"
        }
      ],
      "name": "transferOwnership",
      "outputs": [],
      "stateMutability": "nonpayable",
      "type": "function"
    },
    {
      "inputs": [
        {
          "internalType": "uint8",
          "name": "threshold",
          "type": "uint8"
        }
      ],
      "name": "updateThreshold",
      "outputs": [
        {
          "internalType": "bool",
          "name": "",
          "type": "bool"
        }
      ],
      "stateMutability": "nonpayable",
      "type": "function"
    }
  ],
  "bytecode": "0x608060405234801561001057600080fd5b50611e76806100206000396000f3fe608060405234801561001057600080fd5b50600436106101005760003560e01c80638da5cb5b11610097578063d547741f11610066578063d547741f14610250578063e9c2651814610263578063f2fde38b1461028a578063f3df5b691461029d57600080fd5b80638da5cb5b146101c757806391d14854146101ef578063943b24b214610235578063a217fddf1461024857600080fd5b806336568abe116100d357806336568abe146101865780635a2b0ea6146101995780636bcf35f9146101ac578063715018a6146101bf57600080fd5b806301ffc9a7146101055780630c435a8b1461012d578063248a9ca3146101425780632f2ff15d14610173575b600080fd5b6101186101133660046118ed565b6102b0565b60405190151581526020015b60405180910390f35b61014061013b3660046119db565b610349565b005b6101656101503660046118b3565b60009081526097602052604090206001015490565b604051908152602001610124565b6101406101813660046118cb565b61071d565b6101406101943660046118cb565b610748565b6101186101a736600461192d565b6107fb565b6101186101ba366004611843565b610873565b610140610920565b60335460405173ffffffffffffffffffffffffffffffffffffffff9091168152602001610124565b6101186101fd3660046118cb565b600091825260976020908152604080842073ffffffffffffffffffffffffffffffffffffffff93909316845291905290205460ff1690565b610140610243366004611811565b6109ad565b610165600081565b61014061025e3660046118cb565b610b0c565b6101657f3b5d4cc60d3ec3516ee8ae083bd60934f6eb2a6c54b1229985c41bfb092b260381565b6101406102983660046117f7565b610b32565b6101186102ab366004611a94565b610c62565b60007fffffffff0000000000000000000000000000000000000000000000000000000082167f7965db0b00000000000000000000000000000000000000000000000000000000148061034357507f01ffc9a7000000000000000000000000000000000000000000000000000000007fffffffff000000000000000000000000000000000000000000000000000000008316145b92915050565b7f3b5d4cc60d3ec3516ee8ae083bd60934f6eb2a6c54b1229985c41bfb092b26036103748133610ca8565b6000610381898989610d7a565b905060ca816040516103939190611af8565b908152604080516020928190038301902033600090815292529020600201547501000000000000000000000000000000000000000000900460ff1615610460576040517f08c379a000000000000000000000000000000000000000000000000000000000815260206004820152602160248201527f596f7520616c7265616479207369676e2074686973207472616e73616374696f60448201527f6e0000000000000000000000000000000000000000000000000000000000000060648201526084015b60405180910390fd5b8460ca826040516104719190611af8565b90815260408051602092819003830181203360009081529352912060020180547fffffffffffffffffffffffff00000000000000000000000000000000000000001673ffffffffffffffffffffffffffffffffffffffff9390931692909217909155869060ca906104e3908490611af8565b90815260408051918290036020908101832033600090815291522091909155849060ca90610512908490611af8565b90815260408051918290036020908101832033600090815291522060010191909155839060ca90610544908490611af8565b908152604080519182900360209081018320336000908152915220600201805492151574010000000000000000000000000000000000000000027fffffffffffffffffffffff00ffffffffffffffffffffffffffffffffffffffff9093169290921790915560019060ca906105ba908490611af8565b90815260408051918290036020908101832033600090815290825291822060020180549415157501000000000000000000000000000000000000000000027fffffffffffffffffffff00ffffffffffffffffffffffffffffffffffffffffff909516949094179093559161063a918c918c918c918c918c918b9101611b57565b604080517fffffffffffffffffffffffffffffffffffffffffffffffffffffffffffffffe08184030181529181528151602092830120600081815260cb90935291205490915061068e9060ff166001611cfb565b600082815260cb60205260409081902080547fffffffffffffffffffffffffffffffffffffffffffffffffffffffffffffff001660ff9390931692909217909155517f5bdc7ea86f89a3ea9f721b4361cc0dec10ec2981ff3a28092b27784d5812021c90610709908c908c908c908b908d908c908c90611c6b565b60405180910390a150505050505050505050565b6000828152609760205260409020600101546107398133610ca8565b6107438383610da9565b505050565b73ffffffffffffffffffffffffffffffffffffffff811633146107ed576040517f08c379a000000000000000000000000000000000000000000000000000000000815260206004820152602f60248201527f416363657373436f6e74726f6c3a2063616e206f6e6c792072656e6f756e636560448201527f20726f6c657320666f722073656c6600000000000000000000000000000000006064820152608401610457565b6107f78282610e9d565b5050565b60008087878787878760405160200161081996959493929190611b57565b604080518083037fffffffffffffffffffffffffffffffffffffffffffffffffffffffffffffffe0018152918152815160209283012060c954600091825260cb909352205460ff9182169116101598975050505050505050565b6000806108808133610ca8565b60005b60ff8116841115610915576109037f3b5d4cc60d3ec3516ee8ae083bd60934f6eb2a6c54b1229985c41bfb092b260386868460ff168181106108ee577f4e487b7100000000000000000000000000000000000000000000000000000000600052603260045260246000fd5b905060200201602081019061018191906117f7565b8061090d81611dc2565b915050610883565b506001949350505050565b60335473ffffffffffffffffffffffffffffffffffffffff1633146109a1576040517f08c379a000000000000000000000000000000000000000000000000000000000815260206004820181905260248201527f4f776e61626c653a2063616c6c6572206973206e6f7420746865206f776e65726044820152606401610457565b6109ab6000610f58565b565b600054610100900460ff16806109c6575060005460ff16155b610a52576040517f08c379a000000000000000000000000000000000000000000000000000000000815260206004820152602e60248201527f496e697469616c697a61626c653a20636f6e747261637420697320616c72656160448201527f647920696e697469616c697a65640000000000000000000000000000000000006064820152608401610457565b600054610100900460ff16158015610a9157600080547fffffffffffffffffffffffffffffffffffffffffffffffffffffffffffff0000166101011790555b610a99610fcf565b610aa16110f4565b610aac6000846111f0565b60c980547fffffffffffffffffffffffffffffffffffffffffffffffffffffffffffffff001660ff8416179055801561074357600080547fffffffffffffffffffffffffffffffffffffffffffffffffffffffffffff00ff169055505050565b600082815260976020526040902060010154610b288133610ca8565b6107438383610e9d565b60335473ffffffffffffffffffffffffffffffffffffffff163314610bb3576040517f08c379a000000000000000000000000000000000000000000000000000000000815260206004820181905260248201527f4f776e61626c653a2063616c6c6572206973206e6f7420746865206f776e65726044820152606401610457565b73ffffffffffffffffffffffffffffffffffffffff8116610c56576040517f08c379a000000000000000000000000000000000000000000000000000000000815260206004820152602660248201527f4f776e61626c653a206e6577206f776e657220697320746865207a65726f206160448201527f64647265737300000000000000000000000000000000000000000000000000006064820152608401610457565b610c5f81610f58565b50565b600080610c6f8133610ca8565b60c9805460ff85167fffffffffffffffffffffffffffffffffffffffffffffffffffffffffffffff009091161790556001915050919050565b600082815260976020908152604080832073ffffffffffffffffffffffffffffffffffffffff8516845290915290205460ff166107f757610d008173ffffffffffffffffffffffffffffffffffffffff1660146111fa565b610d0b8360206111fa565b604051602001610d1c929190611bd7565b604080517fffffffffffffffffffffffffffffffffffffffffffffffffffffffffffffffe0818403018152908290527f08c379a000000000000000000000000000000000000000000000000000000000825261045791600401611c58565b6060838383604051602001610d9193929190611b14565b60405160208183030381529060405290509392505050565b600082815260976020908152604080832073ffffffffffffffffffffffffffffffffffffffff8516845290915290205460ff166107f757600082815260976020908152604080832073ffffffffffffffffffffffffffffffffffffffff85168452909152902080547fffffffffffffffffffffffffffffffffffffffffffffffffffffffffffffff00166001179055610e3f3390565b73ffffffffffffffffffffffffffffffffffffffff168173ffffffffffffffffffffffffffffffffffffffff16837f2f8788117e7eff1d82e926ec794901d17c78024a50270940304540a733656f0d60405160405180910390a45050565b600082815260976020908152604080832073ffffffffffffffffffffffffffffffffffffffff8516845290915290205460ff16156107f757600082815260976020908152604080832073ffffffffffffffffffffffffffffffffffffffff8516808552925280832080547fffffffffffffffffffffffffffffffffffffffffffffffffffffffffffffff0016905551339285917ff6391f5c32d9c69d2a47ea670b442974b53935d1edc7fd64eb21e047a839171b9190a45050565b6033805473ffffffffffffffffffffffffffffffffffffffff8381167fffffffffffffffffffffffff0000000000000000000000000000000000000000831681179093556040519116919082907f8be0079c531659141344cd1fd0a4f28419497f9722a3daafe3b4186f6b6457e090600090a35050565b600054610100900460ff1680610fe8575060005460ff16155b611074576040517f08c379a000000000000000000000000000000000000000000000000000000000815260206004820152602e60248201527f496e697469616c697a61626c653a20636f6e747261637420697320616c72656160448201527f647920696e697469616c697a65640000000000000000000000000000000000006064820152608401610457565b600054610100900460ff161580156110b357600080547fffffffffffffffffffffffffffffffffffffffffffffffffffffffffffff0000166101011790555b6110bb611507565b6110c361161b565b8015610c5f57600080547fffffffffffffffffffffffffffffffffffffffffffffffffffffffffffff00ff16905550565b600054610100900460ff168061110d575060005460ff16155b611199576040517f08c379a000000000000000000000000000000000000000000000000000000000815260206004820152602e60248201527f496e697469616c697a61626c653a20636f6e747261637420697320616c72656160448201527f647920696e697469616c697a65640000000000000000000000000000000000006064820152608401610457565b600054610100900460ff161580156111d857600080547fffffffffffffffffffffffffffffffffffffffffffffffffffffffffffff0000166101011790555b6111e0611507565b6111e8611507565b6110c3611507565b6107f78282610da9565b60606000611209836002611d20565b611214906002611ce3565b67ffffffffffffffff811115611253577f4e487b7100000000000000000000000000000000000000000000000000000000600052604160045260246000fd5b6040519080825280601f01601f19166020018201604052801561127d576020820181803683370190505b5090507f3000000000000000000000000000000000000000000000000000000000000000816000815181106112db577f4e487b7100000000000000000000000000000000000000000000000000000000600052603260045260246000fd5b60200101907effffffffffffffffffffffffffffffffffffffffffffffffffffffffffffff1916908160001a9053507f780000000000000000000000000000000000000000000000000000000000000081600181518110611365577f4e487b7100000000000000000000000000000000000000000000000000000000600052603260045260246000fd5b60200101907effffffffffffffffffffffffffffffffffffffffffffffffffffffffffffff1916908160001a90535060006113a1846002611d20565b6113ac906001611ce3565b90505b6001811115611497577f303132333435363738396162636465660000000000000000000000000000000085600f1660108110611414577f4e487b7100000000000000000000000000000000000000000000000000000000600052603260045260246000fd5b1a60f81b828281518110611451577f4e487b7100000000000000000000000000000000000000000000000000000000600052603260045260246000fd5b60200101907effffffffffffffffffffffffffffffffffffffffffffffffffffffffffffff1916908160001a90535060049490941c9361149081611d8d565b90506113af565b508315611500576040517f08c379a000000000000000000000000000000000000000000000000000000000815260206004820181905260248201527f537472696e67733a20686578206c656e67746820696e73756666696369656e746044820152606401610457565b9392505050565b600054610100900460ff1680611520575060005460ff16155b6115ac576040517f08c379a000000000000000000000000000000000000000000000000000000000815260206004820152602e60248201527f496e697469616c697a61626c653a20636f6e747261637420697320616c72656160448201527f647920696e697469616c697a65640000000000000000000000000000000000006064820152608401610457565b600054610100900460ff161580156110c357600080547fffffffffffffffffffffffffffffffffffffffffffffffffffffffffffff0000166101011790558015610c5f57600080547fffffffffffffffffffffffffffffffffffffffffffffffffffffffffffff00ff16905550565b600054610100900460ff1680611634575060005460ff16155b6116c0576040517f08c379a000000000000000000000000000000000000000000000000000000000815260206004820152602e60248201527f496e697469616c697a61626c653a20636f6e747261637420697320616c72656160448201527f647920696e697469616c697a65640000000000000000000000000000000000006064820152608401610457565b600054610100900460ff161580156116ff57600080547fffffffffffffffffffffffffffffffffffffffffffffffffffffffffffff0000166101011790555b6110c333610f58565b803573ffffffffffffffffffffffffffffffffffffffff8116811461172c57600080fd5b919050565b8035801515811461172c57600080fd5b600082601f830112611751578081fd5b813567ffffffffffffffff8082111561176c5761176c611e11565b604051601f83017fffffffffffffffffffffffffffffffffffffffffffffffffffffffffffffffe0908116603f011681019082821181831017156117b2576117b2611e11565b816040528381528660208588010111156117ca578485fd5b8360208701602083013792830160200193909352509392505050565b803560ff8116811461172c57600080fd5b600060208284031215611808578081fd5b61150082611708565b60008060408385031215611823578081fd5b61182c83611708565b915061183a602084016117e6565b90509250929050565b60008060208385031215611855578182fd5b823567ffffffffffffffff8082111561186c578384fd5b818501915085601f83011261187f578384fd5b81358181111561188d578485fd5b8660208260051b85010111156118a1578485fd5b60209290920196919550909350505050565b6000602082840312156118c4578081fd5b5035919050565b600080604083850312156118dd578182fd5b8235915061183a60208401611708565b6000602082840312156118fe578081fd5b81357fffffffff0000000000000000000000000000000000000000000000000000000081168114611500578182fd5b60008060008060008060c08789031215611945578182fd5b863567ffffffffffffffff8082111561195c578384fd5b6119688a838b01611741565b9750602089013591508082111561197d578384fd5b6119898a838b01611741565b9650604089013591508082111561199e578384fd5b506119ab89828a01611741565b945050606087013592506119c160808801611708565b91506119cf60a08801611731565b90509295509295509295565b600080600080600080600060e0888a0312156119f5578081fd5b873567ffffffffffffffff80821115611a0c578283fd5b611a188b838c01611741565b985060208a0135915080821115611a2d578283fd5b611a398b838c01611741565b975060408a0135915080821115611a4e578283fd5b50611a5b8a828b01611741565b95505060608801359350611a7160808901611708565b925060a08801359150611a8660c08901611731565b905092959891949750929550565b600060208284031215611aa5578081fd5b611500826117e6565b60008151808452611ac6816020860160208601611d5d565b601f017fffffffffffffffffffffffffffffffffffffffffffffffffffffffffffffffe0169290920160200192915050565b60008251611b0a818460208701611d5d565b9190910192915050565b60008451611b26818460208901611d5d565b845190830190611b3a818360208901611d5d565b8451910190611b4d818360208801611d5d565b0195945050505050565b60008751611b69818460208c01611d5d565b875190830190611b7d818360208c01611d5d565b8751910190611b90818360208b01611d5d565b01948552505060609190911b7fffffffffffffffffffffffffffffffffffffffff000000000000000000000000166020830152151560f81b60348201526035019392505050565b7f416363657373436f6e74726f6c3a206163636f756e7420000000000000000000815260008351611c0f816017850160208801611d5d565b7f206973206d697373696e6720726f6c65200000000000000000000000000000006017918401918201528351611c4c816028840160208801611d5d565b01602801949350505050565b6020815260006115006020830184611aae565b60e081526000611c7e60e083018a611aae565b8281036020840152611c90818a611aae565b90508281036040840152611ca48189611aae565b91505073ffffffffffffffffffffffffffffffffffffffff861660608301528460808301528360a083015282151560c083015298975050505050505050565b60008219821115611cf657611cf6611de2565b500190565b600060ff821660ff84168060ff03821115611d1857611d18611de2565b019392505050565b6000817fffffffffffffffffffffffffffffffffffffffffffffffffffffffffffffffff0483118215151615611d5857611d58611de2565b500290565b60005b83811015611d78578181015183820152602001611d60565b83811115611d87576000848401525b50505050565b600081611d9c57611d9c611de2565b507fffffffffffffffffffffffffffffffffffffffffffffffffffffffffffffffff0190565b600060ff821660ff811415611dd957611dd9611de2565b60010192915050565b7f4e487b7100000000000000000000000000000000000000000000000000000000600052601160045260246000fd5b7f4e487b7100000000000000000000000000000000000000000000000000000000600052604160045260246000fdfea2646970667358221220537f5a1c2d0adf6187a04f0ad73d89274dd298d5f5cf6ff7611651dda374a61664736f6c63430008040033",
  "linkReferences": {},
  "deployedLinkReferences": {}
}