{
  "_format": "hh-sol-artifact-1",
  "contractName": "FilswanOracle",
  "sourceName": "contracts/FilswanOracle.sol",
  "abi": [
    {
      "anonymous": false,
      "inputs": [
        {
          "indexed": true,
          "internalType": "address",
          "name": "previousOwner",
          "type": "address"
        },
        {
          "indexed": true,
          "internalType": "address",
          "name": "newOwner",
          "type": "address"
        }
      ],
      "name": "OwnershipTransferred",
      "type": "event"
    },
    {
      "anonymous": false,
      "inputs": [
        {
          "indexed": true,
          "internalType": "bytes32",
          "name": "role",
          "type": "bytes32"
        },
        {
          "indexed": true,
          "internalType": "bytes32",
          "name": "previousAdminRole",
          "type": "bytes32"
        },
        {
          "indexed": true,
          "internalType": "bytes32",
          "name": "newAdminRole",
          "type": "bytes32"
        }
      ],
      "name": "RoleAdminChanged",
      "type": "event"
    },
    {
      "anonymous": false,
      "inputs": [
        {
          "indexed": true,
          "internalType": "bytes32",
          "name": "role",
          "type": "bytes32"
        },
        {
          "indexed": true,
          "internalType": "address",
          "name": "account",
          "type": "address"
        },
        {
          "indexed": true,
          "internalType": "address",
          "name": "sender",
          "type": "address"
        }
      ],
      "name": "RoleGranted",
      "type": "event"
    },
    {
      "anonymous": false,
      "inputs": [
        {
          "indexed": true,
          "internalType": "bytes32",
          "name": "role",
          "type": "bytes32"
        },
        {
          "indexed": true,
          "internalType": "address",
          "name": "account",
          "type": "address"
        },
        {
          "indexed": true,
          "internalType": "address",
          "name": "sender",
          "type": "address"
        }
      ],
      "name": "RoleRevoked",
      "type": "event"
    },
    {
      "anonymous": false,
      "inputs": [
        {
          "indexed": false,
          "internalType": "string",
          "name": "cid",
          "type": "string"
        },
        {
          "indexed": false,
          "internalType": "string",
          "name": "orderId",
          "type": "string"
        },
        {
          "indexed": false,
          "internalType": "string",
          "name": "dealId",
          "type": "string"
        },
        {
          "indexed": false,
          "internalType": "address",
          "name": "recipient",
          "type": "address"
        },
        {
          "indexed": false,
          "internalType": "uint256",
          "name": "paid",
          "type": "uint256"
        },
        {
          "indexed": false,
          "internalType": "bool",
          "name": "status",
          "type": "bool"
        }
      ],
      "name": "SignTransaction",
      "type": "event"
    },
    {
      "inputs": [],
      "name": "DAO_ROLE",
      "outputs": [
        {
          "internalType": "bytes32",
          "name": "",
          "type": "bytes32"
        }
      ],
      "stateMutability": "view",
      "type": "function"
    },
    {
      "inputs": [],
      "name": "DEFAULT_ADMIN_ROLE",
      "outputs": [
        {
          "internalType": "bytes32",
          "name": "",
          "type": "bytes32"
        }
      ],
      "stateMutability": "view",
      "type": "function"
    },
    {
      "inputs": [
        {
          "internalType": "bytes32",
          "name": "role",
          "type": "bytes32"
        }
      ],
      "name": "getRoleAdmin",
      "outputs": [
        {
          "internalType": "bytes32",
          "name": "",
          "type": "bytes32"
        }
      ],
      "stateMutability": "view",
      "type": "function"
    },
    {
      "inputs": [],
      "name": "getThreshold",
      "outputs": [
        {
          "internalType": "uint8",
          "name": "",
          "type": "uint8"
        }
      ],
      "stateMutability": "view",
      "type": "function"
    },
    {
      "inputs": [
        {
          "internalType": "bytes32",
          "name": "role",
          "type": "bytes32"
        },
        {
          "internalType": "address",
          "name": "account",
          "type": "address"
        }
      ],
      "name": "grantRole",
      "outputs": [],
      "stateMutability": "nonpayable",
      "type": "function"
    },
    {
      "inputs": [
        {
          "internalType": "bytes32",
          "name": "role",
          "type": "bytes32"
        },
        {
          "internalType": "address",
          "name": "account",
          "type": "address"
        }
      ],
      "name": "hasRole",
      "outputs": [
        {
          "internalType": "bool",
          "name": "",
          "type": "bool"
        }
      ],
      "stateMutability": "view",
      "type": "function"
    },
    {
      "inputs": [
        {
          "internalType": "address",
          "name": "admin",
          "type": "address"
        },
        {
          "internalType": "uint8",
          "name": "threshold",
          "type": "uint8"
        }
      ],
      "name": "initialize",
      "outputs": [],
      "stateMutability": "nonpayable",
      "type": "function"
    },
    {
      "inputs": [
        {
          "internalType": "string",
          "name": "cid",
          "type": "string"
        },
        {
          "internalType": "string",
          "name": "orderId",
          "type": "string"
        },
        {
          "internalType": "string",
          "name": "dealId",
          "type": "string"
        },
        {
          "internalType": "uint256",
          "name": "paid",
          "type": "uint256"
        },
        {
          "internalType": "address",
          "name": "recipient",
          "type": "address"
        },
        {
          "internalType": "bool",
          "name": "status",
          "type": "bool"
        }
      ],
      "name": "isPaymentAvailable",
      "outputs": [
        {
          "internalType": "bool",
          "name": "",
          "type": "bool"
        }
      ],
      "stateMutability": "view",
      "type": "function"
    },
    {
      "inputs": [],
      "name": "owner",
      "outputs": [
        {
          "internalType": "address",
          "name": "",
          "type": "address"
        }
      ],
      "stateMutability": "view",
      "type": "function"
    },
    {
      "inputs": [],
      "name": "renounceOwnership",
      "outputs": [],
      "stateMutability": "nonpayable",
      "type": "function"
    },
    {
      "inputs": [
        {
          "internalType": "bytes32",
          "name": "role",
          "type": "bytes32"
        },
        {
          "internalType": "address",
          "name": "account",
          "type": "address"
        }
      ],
      "name": "renounceRole",
      "outputs": [],
      "stateMutability": "nonpayable",
      "type": "function"
    },
    {
      "inputs": [
        {
          "internalType": "bytes32",
          "name": "role",
          "type": "bytes32"
        },
        {
          "internalType": "address",
          "name": "account",
          "type": "address"
        }
      ],
      "name": "revokeRole",
      "outputs": [],
      "stateMutability": "nonpayable",
      "type": "function"
    },
    {
      "inputs": [
        {
          "internalType": "address[]",
          "name": "daoUsers",
          "type": "address[]"
        }
      ],
      "name": "setDAOUsers",
      "outputs": [
        {
          "internalType": "bool",
          "name": "",
          "type": "bool"
        }
      ],
      "stateMutability": "nonpayable",
      "type": "function"
    },
    {
      "inputs": [
        {
          "internalType": "string",
          "name": "cid",
          "type": "string"
        },
        {
          "internalType": "string",
          "name": "orderId",
          "type": "string"
        },
        {
          "internalType": "string",
          "name": "dealId",
          "type": "string"
        },
        {
          "internalType": "uint256",
          "name": "paid",
          "type": "uint256"
        },
        {
          "internalType": "address",
          "name": "recipient",
          "type": "address"
        },
        {
          "internalType": "bool",
          "name": "status",
          "type": "bool"
        }
      ],
      "name": "signTransaction",
      "outputs": [],
      "stateMutability": "nonpayable",
      "type": "function"
    },
    {
      "inputs": [
        {
          "internalType": "bytes4",
          "name": "interfaceId",
          "type": "bytes4"
        }
      ],
      "name": "supportsInterface",
      "outputs": [
        {
          "internalType": "bool",
          "name": "",
          "type": "bool"
        }
      ],
      "stateMutability": "view",
      "type": "function"
    },
    {
      "inputs": [
        {
          "internalType": "address",
          "name": "newOwner",
          "type": "address"
        }
      ],
      "name": "transferOwnership",
      "outputs": [],
      "stateMutability": "nonpayable",
      "type": "function"
    },
    {
      "inputs": [
        {
          "internalType": "uint8",
          "name": "threshold",
          "type": "uint8"
        }
      ],
      "name": "updateThreshold",
      "outputs": [
        {
          "internalType": "bool",
          "name": "",
          "type": "bool"
        }
      ],
      "stateMutability": "nonpayable",
      "type": "function"
    }
  ],
  "bytecode": "0x608060405234801561001057600080fd5b50611da8806100206000396000f3fe608060405234801561001057600080fd5b506004361061011b5760003560e01c806391d14854116100b2578063e75235b811610081578063f2fde38b11610066578063f2fde38b146102a7578063f3df5b69146102ba578063f7e44ea5146102cd57600080fd5b8063e75235b81461026b578063e9c265181461028057600080fd5b806391d14854146101f7578063943b24b21461023d578063a217fddf14610250578063d547741f1461025857600080fd5b80635a2b0ea6116100ee5780635a2b0ea6146101a15780636bcf35f9146101b4578063715018a6146101c75780638da5cb5b146101cf57600080fd5b806301ffc9a714610120578063248a9ca3146101485780632f2ff15d1461017957806336568abe1461018e575b600080fd5b61013361012e3660046118d8565b6102e0565b60405190151581526020015b60405180910390f35b61016b61015636600461189e565b60009081526097602052604090206001015490565b60405190815260200161013f565b61018c6101873660046118b6565b610379565b005b61018c61019c3660046118b6565b6103a4565b6101336101af366004611918565b61045c565b6101336101c236600461182e565b6104d4565b61018c610581565b60335460405173ffffffffffffffffffffffffffffffffffffffff909116815260200161013f565b6101336102053660046118b6565b600091825260976020908152604080842073ffffffffffffffffffffffffffffffffffffffff93909316845291905290205460ff1690565b61018c61024b3660046117fc565b61060e565b61016b600081565b61018c6102663660046118b6565b61076d565b60c95460405160ff909116815260200161013f565b61016b7f3b5d4cc60d3ec3516ee8ae083bd60934f6eb2a6c54b1229985c41bfb092b260381565b61018c6102b53660046117e2565b610793565b6101336102c83660046119ce565b6108c3565b61018c6102db366004611918565b610909565b60007fffffffff0000000000000000000000000000000000000000000000000000000082167f7965db0b00000000000000000000000000000000000000000000000000000000148061037357507f01ffc9a7000000000000000000000000000000000000000000000000000000007fffffffff000000000000000000000000000000000000000000000000000000008316145b92915050565b6000828152609760205260409020600101546103958133610ca3565b61039f8383610d75565b505050565b73ffffffffffffffffffffffffffffffffffffffff8116331461044e576040517f08c379a000000000000000000000000000000000000000000000000000000000815260206004820152602f60248201527f416363657373436f6e74726f6c3a2063616e206f6e6c792072656e6f756e636560448201527f20726f6c657320666f722073656c66000000000000000000000000000000000060648201526084015b60405180910390fd5b6104588282610e69565b5050565b60008087878787878760405160200161047a96959493929190611a91565b604080518083037fffffffffffffffffffffffffffffffffffffffffffffffffffffffffffffffe0018152918152815160209283012060c954600091825260cb909352205460ff9182169116101598975050505050505050565b6000806104e18133610ca3565b60005b60ff8116841115610576576105647f3b5d4cc60d3ec3516ee8ae083bd60934f6eb2a6c54b1229985c41bfb092b260386868460ff1681811061054f577f4e487b7100000000000000000000000000000000000000000000000000000000600052603260045260246000fd5b905060200201602081019061018791906117e2565b8061056e81611cf4565b9150506104e4565b506001949350505050565b60335473ffffffffffffffffffffffffffffffffffffffff163314610602576040517f08c379a000000000000000000000000000000000000000000000000000000000815260206004820181905260248201527f4f776e61626c653a2063616c6c6572206973206e6f7420746865206f776e65726044820152606401610445565b61060c6000610f24565b565b600054610100900460ff1680610627575060005460ff16155b6106b3576040517f08c379a000000000000000000000000000000000000000000000000000000000815260206004820152602e60248201527f496e697469616c697a61626c653a20636f6e747261637420697320616c72656160448201527f647920696e697469616c697a65640000000000000000000000000000000000006064820152608401610445565b600054610100900460ff161580156106f257600080547fffffffffffffffffffffffffffffffffffffffffffffffffffffffffffff0000166101011790555b6106fa610f9b565b6107026110c0565b61070d6000846111bc565b60c980547fffffffffffffffffffffffffffffffffffffffffffffffffffffffffffffff001660ff8416179055801561039f57600080547fffffffffffffffffffffffffffffffffffffffffffffffffffffffffffff00ff169055505050565b6000828152609760205260409020600101546107898133610ca3565b61039f8383610e69565b60335473ffffffffffffffffffffffffffffffffffffffff163314610814576040517f08c379a000000000000000000000000000000000000000000000000000000000815260206004820181905260248201527f4f776e61626c653a2063616c6c6572206973206e6f7420746865206f776e65726044820152606401610445565b73ffffffffffffffffffffffffffffffffffffffff81166108b7576040517f08c379a000000000000000000000000000000000000000000000000000000000815260206004820152602660248201527f4f776e61626c653a206e6577206f776e657220697320746865207a65726f206160448201527f64647265737300000000000000000000000000000000000000000000000000006064820152608401610445565b6108c081610f24565b50565b6000806108d08133610ca3565b60c9805460ff85167fffffffffffffffffffffffffffffffffffffffffffffffffffffffffffffff009091161790556001915050919050565b7f3b5d4cc60d3ec3516ee8ae083bd60934f6eb2a6c54b1229985c41bfb092b26036109348133610ca3565b60006109418888886111c6565b905060ca816040516109539190611a32565b908152604080516020928190038301902033600090815292529020600201547501000000000000000000000000000000000000000000900460ff1615610a1b576040517f08c379a000000000000000000000000000000000000000000000000000000000815260206004820152602160248201527f596f7520616c7265616479207369676e2074686973207472616e73616374696f60448201527f6e000000000000000000000000000000000000000000000000000000000000006064820152608401610445565b8360ca82604051610a2c9190611a32565b90815260408051602092819003830181203360009081529352912060020180547fffffffffffffffffffffffff00000000000000000000000000000000000000001673ffffffffffffffffffffffffffffffffffffffff9390931692909217909155859060ca90610a9e908490611a32565b90815260408051918290036020908101832033600090815291522091909155839060ca90610acd908490611a32565b908152604080519182900360209081018320336000908152915220600201805492151574010000000000000000000000000000000000000000027fffffffffffffffffffffff00ffffffffffffffffffffffffffffffffffffffff9093169290921790915560019060ca90610b43908490611a32565b90815260408051918290036020908101832033600090815290825291822060020180549415157501000000000000000000000000000000000000000000027fffffffffffffffffffff00ffffffffffffffffffffffffffffffffffffffffff9095169490941790935591610bc3918b918b918b918b918b918b9101611a91565b604080517fffffffffffffffffffffffffffffffffffffffffffffffffffffffffffffffe08184030181529181528151602092830120600081815260cb909352912054909150610c179060ff166001611c2d565b600082815260cb60205260409081902080547fffffffffffffffffffffffffffffffffffffffffffffffffffffffffffffff001660ff9390931692909217909155517f4cfe23e0ff309b71bd08673883f3a58a5813247586666c8a7f2147726630a25890610c90908b908b908b908a908c908b90611ba5565b60405180910390a1505050505050505050565b600082815260976020908152604080832073ffffffffffffffffffffffffffffffffffffffff8516845290915290205460ff1661045857610cfb8173ffffffffffffffffffffffffffffffffffffffff1660146111f5565b610d068360206111f5565b604051602001610d17929190611b11565b604080517fffffffffffffffffffffffffffffffffffffffffffffffffffffffffffffffe0818403018152908290527f08c379a000000000000000000000000000000000000000000000000000000000825261044591600401611b92565b600082815260976020908152604080832073ffffffffffffffffffffffffffffffffffffffff8516845290915290205460ff1661045857600082815260976020908152604080832073ffffffffffffffffffffffffffffffffffffffff85168452909152902080547fffffffffffffffffffffffffffffffffffffffffffffffffffffffffffffff00166001179055610e0b3390565b73ffffffffffffffffffffffffffffffffffffffff168173ffffffffffffffffffffffffffffffffffffffff16837f2f8788117e7eff1d82e926ec794901d17c78024a50270940304540a733656f0d60405160405180910390a45050565b600082815260976020908152604080832073ffffffffffffffffffffffffffffffffffffffff8516845290915290205460ff161561045857600082815260976020908152604080832073ffffffffffffffffffffffffffffffffffffffff8516808552925280832080547fffffffffffffffffffffffffffffffffffffffffffffffffffffffffffffff0016905551339285917ff6391f5c32d9c69d2a47ea670b442974b53935d1edc7fd64eb21e047a839171b9190a45050565b6033805473ffffffffffffffffffffffffffffffffffffffff8381167fffffffffffffffffffffffff0000000000000000000000000000000000000000831681179093556040519116919082907f8be0079c531659141344cd1fd0a4f28419497f9722a3daafe3b4186f6b6457e090600090a35050565b600054610100900460ff1680610fb4575060005460ff16155b611040576040517f08c379a000000000000000000000000000000000000000000000000000000000815260206004820152602e60248201527f496e697469616c697a61626c653a20636f6e747261637420697320616c72656160448201527f647920696e697469616c697a65640000000000000000000000000000000000006064820152608401610445565b600054610100900460ff1615801561107f57600080547fffffffffffffffffffffffffffffffffffffffffffffffffffffffffffff0000166101011790555b611087611502565b61108f611616565b80156108c057600080547fffffffffffffffffffffffffffffffffffffffffffffffffffffffffffff00ff16905550565b600054610100900460ff16806110d9575060005460ff16155b611165576040517f08c379a000000000000000000000000000000000000000000000000000000000815260206004820152602e60248201527f496e697469616c697a61626c653a20636f6e747261637420697320616c72656160448201527f647920696e697469616c697a65640000000000000000000000000000000000006064820152608401610445565b600054610100900460ff161580156111a457600080547fffffffffffffffffffffffffffffffffffffffffffffffffffffffffffff0000166101011790555b6111ac611502565b6111b4611502565b61108f611502565b6104588282610d75565b60608383836040516020016111dd93929190611a4e565b60405160208183030381529060405290509392505050565b60606000611204836002611c52565b61120f906002611c15565b67ffffffffffffffff81111561124e577f4e487b7100000000000000000000000000000000000000000000000000000000600052604160045260246000fd5b6040519080825280601f01601f191660200182016040528015611278576020820181803683370190505b5090507f3000000000000000000000000000000000000000000000000000000000000000816000815181106112d6577f4e487b7100000000000000000000000000000000000000000000000000000000600052603260045260246000fd5b60200101907effffffffffffffffffffffffffffffffffffffffffffffffffffffffffffff1916908160001a9053507f780000000000000000000000000000000000000000000000000000000000000081600181518110611360577f4e487b7100000000000000000000000000000000000000000000000000000000600052603260045260246000fd5b60200101907effffffffffffffffffffffffffffffffffffffffffffffffffffffffffffff1916908160001a905350600061139c846002611c52565b6113a7906001611c15565b90505b6001811115611492577f303132333435363738396162636465660000000000000000000000000000000085600f166010811061140f577f4e487b7100000000000000000000000000000000000000000000000000000000600052603260045260246000fd5b1a60f81b82828151811061144c577f4e487b7100000000000000000000000000000000000000000000000000000000600052603260045260246000fd5b60200101907effffffffffffffffffffffffffffffffffffffffffffffffffffffffffffff1916908160001a90535060049490941c9361148b81611cbf565b90506113aa565b5083156114fb576040517f08c379a000000000000000000000000000000000000000000000000000000000815260206004820181905260248201527f537472696e67733a20686578206c656e67746820696e73756666696369656e746044820152606401610445565b9392505050565b600054610100900460ff168061151b575060005460ff16155b6115a7576040517f08c379a000000000000000000000000000000000000000000000000000000000815260206004820152602e60248201527f496e697469616c697a61626c653a20636f6e747261637420697320616c72656160448201527f647920696e697469616c697a65640000000000000000000000000000000000006064820152608401610445565b600054610100900460ff1615801561108f57600080547fffffffffffffffffffffffffffffffffffffffffffffffffffffffffffff00001661010117905580156108c057600080547fffffffffffffffffffffffffffffffffffffffffffffffffffffffffffff00ff16905550565b600054610100900460ff168061162f575060005460ff16155b6116bb576040517f08c379a000000000000000000000000000000000000000000000000000000000815260206004820152602e60248201527f496e697469616c697a61626c653a20636f6e747261637420697320616c72656160448201527f647920696e697469616c697a65640000000000000000000000000000000000006064820152608401610445565b600054610100900460ff161580156116fa57600080547fffffffffffffffffffffffffffffffffffffffffffffffffffffffffffff0000166101011790555b61108f33610f24565b803573ffffffffffffffffffffffffffffffffffffffff8116811461172757600080fd5b919050565b600082601f83011261173c578081fd5b813567ffffffffffffffff8082111561175757611757611d43565b604051601f83017fffffffffffffffffffffffffffffffffffffffffffffffffffffffffffffffe0908116603f0116810190828211818310171561179d5761179d611d43565b816040528381528660208588010111156117b5578485fd5b8360208701602083013792830160200193909352509392505050565b803560ff8116811461172757600080fd5b6000602082840312156117f3578081fd5b6114fb82611703565b6000806040838503121561180e578081fd5b61181783611703565b9150611825602084016117d1565b90509250929050565b60008060208385031215611840578182fd5b823567ffffffffffffffff80821115611857578384fd5b818501915085601f83011261186a578384fd5b813581811115611878578485fd5b8660208260051b850101111561188c578485fd5b60209290920196919550909350505050565b6000602082840312156118af578081fd5b5035919050565b600080604083850312156118c8578182fd5b8235915061182560208401611703565b6000602082840312156118e9578081fd5b81357fffffffff00000000000000000000000000000000000000000000000000000000811681146114fb578182fd5b60008060008060008060c08789031215611930578182fd5b863567ffffffffffffffff80821115611947578384fd5b6119538a838b0161172c565b97506020890135915080821115611968578384fd5b6119748a838b0161172c565b96506040890135915080821115611989578384fd5b5061199689828a0161172c565b945050606087013592506119ac60808801611703565b915060a087013580151581146119c0578182fd5b809150509295509295509295565b6000602082840312156119df578081fd5b6114fb826117d1565b60008151808452611a00816020860160208601611c8f565b601f017fffffffffffffffffffffffffffffffffffffffffffffffffffffffffffffffe0169290920160200192915050565b60008251611a44818460208701611c8f565b9190910192915050565b60008451611a60818460208901611c8f565b845190830190611a74818360208901611c8f565b8451910190611a87818360208801611c8f565b0195945050505050565b60008751611aa3818460208c01611c8f565b875190830190611ab7818360208c01611c8f565b8751910190611aca818360208b01611c8f565b01948552505060609190911b7fffffffffffffffffffffffffffffffffffffffff000000000000000000000000166020830152151560f81b60348201526035019392505050565b7f416363657373436f6e74726f6c3a206163636f756e7420000000000000000000815260008351611b49816017850160208801611c8f565b7f206973206d697373696e6720726f6c65200000000000000000000000000000006017918401918201528351611b86816028840160208801611c8f565b01602801949350505050565b6020815260006114fb60208301846119e8565b60c081526000611bb860c08301896119e8565b8281036020840152611bca81896119e8565b90508281036040840152611bde81886119e8565b73ffffffffffffffffffffffffffffffffffffffff96909616606084015250506080810192909252151560a0909101529392505050565b60008219821115611c2857611c28611d14565b500190565b600060ff821660ff84168060ff03821115611c4a57611c4a611d14565b019392505050565b6000817fffffffffffffffffffffffffffffffffffffffffffffffffffffffffffffffff0483118215151615611c8a57611c8a611d14565b500290565b60005b83811015611caa578181015183820152602001611c92565b83811115611cb9576000848401525b50505050565b600081611cce57611cce611d14565b507fffffffffffffffffffffffffffffffffffffffffffffffffffffffffffffffff0190565b600060ff821660ff811415611d0b57611d0b611d14565b60010192915050565b7f4e487b7100000000000000000000000000000000000000000000000000000000600052601160045260246000fd5b7f4e487b7100000000000000000000000000000000000000000000000000000000600052604160045260246000fdfea264697066735822122043b7e3381855203ef6d6d57221783e562a24b97244c2c1cfd2815aba77d3e64964736f6c63430008040033",
  "linkReferences": {},
  "deployedLinkReferences": {}
}