{
  "_format": "hh-sol-artifact-1",
  "contractName": "PriceFeed",
  "sourceName": "contracts/PriceFeed.sol",
  "abi": [
    {
      "inputs": [
        {
          "internalType": "address",
          "name": "dexPair",
          "type": "address"
        },
        {
          "internalType": "uint8",
          "name": "tokenIndex",
          "type": "uint8"
        }
      ],
      "stateMutability": "nonpayable",
      "type": "constructor"
    },
    {
      "inputs": [
        {
          "internalType": "address",
          "name": "tokenInput",
          "type": "address"
        },
        {
          "internalType": "uint256",
          "name": "amount",
          "type": "uint256"
        }
      ],
      "name": "consult",
      "outputs": [
        {
          "internalType": "uint256",
          "name": "",
          "type": "uint256"
        }
      ],
      "stateMutability": "view",
      "type": "function"
    }
  ],
  "bytecode": "0x608060405234801561001057600080fd5b506040516105dc3803806105dc83398101604081905261002f91610061565b6000805460ff909216600160a01b026001600160a81b03199092166001600160a01b03909316929092171790556100aa565b60008060408385031215610073578182fd5b82516001600160a01b0381168114610089578283fd5b602084015190925060ff8116811461009f578182fd5b809150509250929050565b610523806100b96000396000f3fe608060405234801561001057600080fd5b506004361061002b5760003560e01c80633ddac95314610030575b600080fd5b61004361003e3660046103a0565b610055565b60405190815260200160405180910390f35b60008082116100c5576040517f08c379a000000000000000000000000000000000000000000000000000000000815260206004820152601a60248201527f616d6f756e74206d7573742067726561746572207468616e203000000000000060448201526064015b60405180910390fd5b60008054604080517f0902f1ac0000000000000000000000000000000000000000000000000000000081529051839273ffffffffffffffffffffffffffffffffffffffff1691630902f1ac916004808301926060929190829003018186803b15801561013057600080fd5b505afa158015610144573d6000803e3d6000fd5b505050506040513d601f19601f8201168201806040525081019061016891906103e3565b509092509050600061018d6dffffffffffffffffffffffffffff808516908416610352565b600080549192509074010000000000000000000000000000000000000000900460ff1661026d5760006101d06dffffffffffffffffffffffffffff861688610365565b90506000811161023c576040517f08c379a000000000000000000000000000000000000000000000000000000000815260206004820152601a60248201527f6e6f7420656e6f75676820746f6b656e20746f2072657475726e00000000000060448201526064016100bc565b60006102488483610371565b9050610264816dffffffffffffffffffffffffffff8716610365565b92505050610348565b60005474010000000000000000000000000000000000000000900460ff16600114156103485760006102af6dffffffffffffffffffffffffffff851688610365565b90506000811161031b576040517f08c379a000000000000000000000000000000000000000000000000000000000815260206004820152601a60248201527f6e6f7420656e6f75676820746f6b656e20746f2072657475726e00000000000060448201526064016100bc565b60006103278483610371565b9050610343816dffffffffffffffffffffffffffff8816610365565b925050505b9695505050505050565b600061035e828461046a565b9392505050565b600061035e82846104a7565b600061035e8284610431565b80516dffffffffffffffffffffffffffff8116811461039b57600080fd5b919050565b600080604083850312156103b2578182fd5b823573ffffffffffffffffffffffffffffffffffffffff811681146103d5578283fd5b946020939093013593505050565b6000806000606084860312156103f7578081fd5b6104008461037d565b925061040e6020850161037d565b9150604084015163ffffffff81168114610426578182fd5b809150509250925092565b600082610465577f4e487b710000000000000000000000000000000000000000000000000000000081526012600452602481fd5b500490565b6000817fffffffffffffffffffffffffffffffffffffffffffffffffffffffffffffffff04831182151516156104a2576104a26104be565b500290565b6000828210156104b9576104b96104be565b500390565b7f4e487b7100000000000000000000000000000000000000000000000000000000600052601160045260246000fdfea264697066735822122026b51ca79b02447a6deb5d98ee79ab42c20c34956bc721f18ac28149161369ca64736f6c63430008040033",
  "linkReferences": {},
  "deployedLinkReferences": {}
}